{
  "abi": [
    {
      "type": "constructor",
      "inputs": [],
      "stateMutability": "nonpayable"
    },
    {
      "type": "function",
      "name": "addressToTokenId",
      "inputs": [
        {
          "name": "",
          "type": "address",
          "internalType": "address"
        }
      ],
      "outputs": [
        {
          "name": "",
          "type": "uint256",
          "internalType": "uint256"
        }
      ],
      "stateMutability": "view"
    },
    {
      "type": "function",
      "name": "approve",
      "inputs": [
        {
          "name": "",
          "type": "address",
          "internalType": "address"
        },
        {
          "name": "",
          "type": "uint256",
          "internalType": "uint256"
        }
      ],
      "outputs": [],
      "stateMutability": "pure"
    },
    {
      "type": "function",
      "name": "balanceOf",
      "inputs": [
        {
          "name": "owner",
          "type": "address",
          "internalType": "address"
        }
      ],
      "outputs": [
        {
          "name": "",
          "type": "uint256",
          "internalType": "uint256"
        }
      ],
      "stateMutability": "view"
    },
    {
      "type": "function",
      "name": "burn",
      "inputs": [
        {
          "name": "from",
          "type": "address",
          "internalType": "address"
        }
      ],
      "outputs": [],
      "stateMutability": "nonpayable"
    },
    {
      "type": "function",
      "name": "getApproved",
      "inputs": [
        {
          "name": "tokenId",
          "type": "uint256",
          "internalType": "uint256"
        }
      ],
      "outputs": [
        {
          "name": "",
          "type": "address",
          "internalType": "address"
        }
      ],
      "stateMutability": "view"
    },
    {
      "type": "function",
      "name": "hasMinted",
      "inputs": [
        {
          "name": "",
          "type": "address",
          "internalType": "address"
        }
      ],
      "outputs": [
        {
          "name": "",
          "type": "bool",
          "internalType": "bool"
        }
      ],
      "stateMutability": "view"
    },
    {
      "type": "function",
      "name": "hasToken",
      "inputs": [
        {
          "name": "user",
          "type": "address",
          "internalType": "address"
        }
      ],
      "outputs": [
        {
          "name": "",
          "type": "bool",
          "internalType": "bool"
        }
      ],
      "stateMutability": "view"
    },
    {
      "type": "function",
      "name": "isApprovedForAll",
      "inputs": [
        {
          "name": "owner",
          "type": "address",
          "internalType": "address"
        },
        {
          "name": "operator",
          "type": "address",
          "internalType": "address"
        }
      ],
      "outputs": [
        {
          "name": "",
          "type": "bool",
          "internalType": "bool"
        }
      ],
      "stateMutability": "view"
    },
    {
      "type": "function",
      "name": "mint",
      "inputs": [
        {
          "name": "to",
          "type": "address",
          "internalType": "address"
        },
        {
          "name": "uri",
          "type": "string",
          "internalType": "string"
        }
      ],
      "outputs": [],
      "stateMutability": "nonpayable"
    },
    {
      "type": "function",
      "name": "name",
      "inputs": [],
      "outputs": [
        {
          "name": "",
          "type": "string",
          "internalType": "string"
        }
      ],
      "stateMutability": "view"
    },
    {
      "type": "function",
      "name": "nextTokenId",
      "inputs": [],
      "outputs": [
        {
          "name": "",
          "type": "uint256",
          "internalType": "uint256"
        }
      ],
      "stateMutability": "view"
    },
    {
      "type": "function",
      "name": "owner",
      "inputs": [],
      "outputs": [
        {
          "name": "",
          "type": "address",
          "internalType": "address"
        }
      ],
      "stateMutability": "view"
    },
    {
      "type": "function",
      "name": "ownerOf",
      "inputs": [
        {
          "name": "tokenId",
          "type": "uint256",
          "internalType": "uint256"
        }
      ],
      "outputs": [
        {
          "name": "",
          "type": "address",
          "internalType": "address"
        }
      ],
      "stateMutability": "view"
    },
    {
      "type": "function",
      "name": "renounceOwnership",
      "inputs": [],
      "outputs": [],
      "stateMutability": "nonpayable"
    },
    {
      "type": "function",
      "name": "safeTransferFrom",
      "inputs": [
        {
          "name": "from",
          "type": "address",
          "internalType": "address"
        },
        {
          "name": "to",
          "type": "address",
          "internalType": "address"
        },
        {
          "name": "tokenId",
          "type": "uint256",
          "internalType": "uint256"
        }
      ],
      "outputs": [],
      "stateMutability": "nonpayable"
    },
    {
      "type": "function",
      "name": "safeTransferFrom",
      "inputs": [
        {
          "name": "from",
          "type": "address",
          "internalType": "address"
        },
        {
          "name": "to",
          "type": "address",
          "internalType": "address"
        },
        {
          "name": "tokenId",
          "type": "uint256",
          "internalType": "uint256"
        },
        {
          "name": "data",
          "type": "bytes",
          "internalType": "bytes"
        }
      ],
      "outputs": [],
      "stateMutability": "nonpayable"
    },
    {
      "type": "function",
      "name": "setApprovalForAll",
      "inputs": [
        {
          "name": "",
          "type": "address",
          "internalType": "address"
        },
        {
          "name": "",
          "type": "bool",
          "internalType": "bool"
        }
      ],
      "outputs": [],
      "stateMutability": "pure"
    },
    {
      "type": "function",
      "name": "supportsInterface",
      "inputs": [
        {
          "name": "interfaceId",
          "type": "bytes4",
          "internalType": "bytes4"
        }
      ],
      "outputs": [
        {
          "name": "",
          "type": "bool",
          "internalType": "bool"
        }
      ],
      "stateMutability": "view"
    },
    {
      "type": "function",
      "name": "symbol",
      "inputs": [],
      "outputs": [
        {
          "name": "",
          "type": "string",
          "internalType": "string"
        }
      ],
      "stateMutability": "view"
    },
    {
      "type": "function",
      "name": "tokenURI",
      "inputs": [
        {
          "name": "tokenId",
          "type": "uint256",
          "internalType": "uint256"
        }
      ],
      "outputs": [
        {
          "name": "",
          "type": "string",
          "internalType": "string"
        }
      ],
      "stateMutability": "view"
    },
    {
      "type": "function",
      "name": "transferFrom",
      "inputs": [
        {
          "name": "from",
          "type": "address",
          "internalType": "address"
        },
        {
          "name": "to",
          "type": "address",
          "internalType": "address"
        },
        {
          "name": "tokenId",
          "type": "uint256",
          "internalType": "uint256"
        }
      ],
      "outputs": [],
      "stateMutability": "nonpayable"
    },
    {
      "type": "function",
      "name": "transferOwnership",
      "inputs": [
        {
          "name": "newOwner",
          "type": "address",
          "internalType": "address"
        }
      ],
      "outputs": [],
      "stateMutability": "nonpayable"
    },
    {
      "type": "event",
      "name": "Approval",
      "inputs": [
        {
          "name": "owner",
          "type": "address",
          "indexed": true,
          "internalType": "address"
        },
        {
          "name": "approved",
          "type": "address",
          "indexed": true,
          "internalType": "address"
        },
        {
          "name": "tokenId",
          "type": "uint256",
          "indexed": true,
          "internalType": "uint256"
        }
      ],
      "anonymous": false
    },
    {
      "type": "event",
      "name": "ApprovalForAll",
      "inputs": [
        {
          "name": "owner",
          "type": "address",
          "indexed": true,
          "internalType": "address"
        },
        {
          "name": "operator",
          "type": "address",
          "indexed": true,
          "internalType": "address"
        },
        {
          "name": "approved",
          "type": "bool",
          "indexed": false,
          "internalType": "bool"
        }
      ],
      "anonymous": false
    },
    {
      "type": "event",
      "name": "BatchMetadataUpdate",
      "inputs": [
        {
          "name": "_fromTokenId",
          "type": "uint256",
          "indexed": false,
          "internalType": "uint256"
        },
        {
          "name": "_toTokenId",
          "type": "uint256",
          "indexed": false,
          "internalType": "uint256"
        }
      ],
      "anonymous": false
    },
    {
      "type": "event",
      "name": "MetadataUpdate",
      "inputs": [
        {
          "name": "_tokenId",
          "type": "uint256",
          "indexed": false,
          "internalType": "uint256"
        }
      ],
      "anonymous": false
    },
    {
      "type": "event",
      "name": "OwnershipTransferred",
      "inputs": [
        {
          "name": "previousOwner",
          "type": "address",
          "indexed": true,
          "internalType": "address"
        },
        {
          "name": "newOwner",
          "type": "address",
          "indexed": true,
          "internalType": "address"
        }
      ],
      "anonymous": false
    },
    {
      "type": "event",
      "name": "Transfer",
      "inputs": [
        {
          "name": "from",
          "type": "address",
          "indexed": true,
          "internalType": "address"
        },
        {
          "name": "to",
          "type": "address",
          "indexed": true,
          "internalType": "address"
        },
        {
          "name": "tokenId",
          "type": "uint256",
          "indexed": true,
          "internalType": "uint256"
        }
      ],
      "anonymous": false
    },
    {
      "type": "error",
      "name": "ERC721IncorrectOwner",
      "inputs": [
        {
          "name": "sender",
          "type": "address",
          "internalType": "address"
        },
        {
          "name": "tokenId",
          "type": "uint256",
          "internalType": "uint256"
        },
        {
          "name": "owner",
          "type": "address",
          "internalType": "address"
        }
      ]
    },
    {
      "type": "error",
      "name": "ERC721InsufficientApproval",
      "inputs": [
        {
          "name": "operator",
          "type": "address",
          "internalType": "address"
        },
        {
          "name": "tokenId",
          "type": "uint256",
          "internalType": "uint256"
        }
      ]
    },
    {
      "type": "error",
      "name": "ERC721InvalidApprover",
      "inputs": [
        {
          "name": "approver",
          "type": "address",
          "internalType": "address"
        }
      ]
    },
    {
      "type": "error",
      "name": "ERC721InvalidOperator",
      "inputs": [
        {
          "name": "operator",
          "type": "address",
          "internalType": "address"
        }
      ]
    },
    {
      "type": "error",
      "name": "ERC721InvalidOwner",
      "inputs": [
        {
          "name": "owner",
          "type": "address",
          "internalType": "address"
        }
      ]
    },
    {
      "type": "error",
      "name": "ERC721InvalidReceiver",
      "inputs": [
        {
          "name": "receiver",
          "type": "address",
          "internalType": "address"
        }
      ]
    },
    {
      "type": "error",
      "name": "ERC721InvalidSender",
      "inputs": [
        {
          "name": "sender",
          "type": "address",
          "internalType": "address"
        }
      ]
    },
    {
      "type": "error",
      "name": "ERC721NonexistentToken",
      "inputs": [
        {
          "name": "tokenId",
          "type": "uint256",
          "internalType": "uint256"
        }
      ]
    },
    {
      "type": "error",
      "name": "OwnableInvalidOwner",
      "inputs": [
        {
          "name": "owner",
          "type": "address",
          "internalType": "address"
        }
      ]
    },
    {
      "type": "error",
      "name": "OwnableUnauthorizedAccount",
      "inputs": [
        {
          "name": "account",
          "type": "address",
          "internalType": "address"
        }
      ]
    }
  ],
  "bytecode": {
    "object": "0x608060405234801561000f575f5ffd5b50336040518060400160405280601181526020017f5665726966696564204964656e746974790000000000000000000000000000008152506040518060400160405280600381526020017f5649440000000000000000000000000000000000000000000000000000000000815250815f908161008b9190610423565b50806001908161009b9190610423565b5050505f73ffffffffffffffffffffffffffffffffffffffff168173ffffffffffffffffffffffffffffffffffffffff160361010e575f6040517f1e4fbdf70000000000000000000000000000000000000000000000000000000081526004016101059190610531565b60405180910390fd5b61011d8161012360201b60201c565b5061054a565b5f60075f9054906101000a900473ffffffffffffffffffffffffffffffffffffffff1690508160075f6101000a81548173ffffffffffffffffffffffffffffffffffffffff021916908373ffffffffffffffffffffffffffffffffffffffff1602179055508173ffffffffffffffffffffffffffffffffffffffff168173ffffffffffffffffffffffffffffffffffffffff167f8be0079c531659141344cd1fd0a4f28419497f9722a3daafe3b4186f6b6457e060405160405180910390a35050565b5f81519050919050565b7f4e487b71000000000000000000000000000000000000000000000000000000005f52604160045260245ffd5b7f4e487b71000000000000000000000000000000000000000000000000000000005f52602260045260245ffd5b5f600282049050600182168061026157607f821691505b6020821081036102745761027361021d565b5b50919050565b5f819050815f5260205f209050919050565b5f6020601f8301049050919050565b5f82821b905092915050565b5f600883026102d67fffffffffffffffffffffffffffffffffffffffffffffffffffffffffffffffff8261029b565b6102e0868361029b565b95508019841693508086168417925050509392505050565b5f819050919050565b5f819050919050565b5f61032461031f61031a846102f8565b610301565b6102f8565b9050919050565b5f819050919050565b61033d8361030a565b6103516103498261032b565b8484546102a7565b825550505050565b5f5f905090565b610368610359565b610373818484610334565b505050565b5b818110156103965761038b5f82610360565b600181019050610379565b5050565b601f8211156103db576103ac8161027a565b6103b58461028c565b810160208510156103c4578190505b6103d86103d08561028c565b830182610378565b50505b505050565b5f82821c905092915050565b5f6103fb5f19846008026103e0565b1980831691505092915050565b5f61041383836103ec565b9150826002028217905092915050565b61042c826101e6565b67ffffffffffffffff811115610445576104446101f0565b5b61044f825461024a565b61045a82828561039a565b5f60209050601f83116001811461048b575f8415610479578287015190505b6104838582610408565b8655506104ea565b601f1984166104998661027a565b5f5b828110156104c05784890151825560018201915060208501945060208101905061049b565b868310156104dd57848901516104d9601f8916826103ec565b8355505b6001600288020188555050505b505050505050565b5f73ffffffffffffffffffffffffffffffffffffffff82169050919050565b5f61051b826104f2565b9050919050565b61052b81610511565b82525050565b5f6020820190506105445f830184610522565b92915050565b612c02806105575f395ff3fe608060405234801561000f575f5ffd5b5060043610610140575f3560e01c806375794a3c116100b6578063a22cb4651161007a578063a22cb46514610386578063b88d4fde146103a2578063c87b56dd146103be578063d0def521146103ee578063e985e9c51461040a578063f2fde38b1461043a57610140565b806375794a3c146102e057806389afcb44146102fe5780638da5cb5b1461031a57806395d89b41146103385780639bb0f5991461035657610140565b806338e21cce1161010857806338e21cce146101fa57806342842e0e1461022a5780636352211e146102465780636511bf2e1461027657806370a08231146102a6578063715018a6146102d657610140565b806301ffc9a71461014457806306fdde0314610174578063081812fc14610192578063095ea7b3146101c257806323b872dd146101de575b5f5ffd5b61015e60048036038101906101599190611e7e565b610456565b60405161016b9190611ec3565b60405180910390f35b61017c6104b6565b6040516101899190611f4c565b60405180910390f35b6101ac60048036038101906101a79190611f9f565b610545565b6040516101b99190612009565b60405180910390f35b6101dc60048036038101906101d7919061204c565b610560565b005b6101f860048036038101906101f3919061208a565b61059b565b005b610214600480360381019061020f91906120da565b61069a565b6040516102219190611ec3565b60405180910390f35b610244600480360381019061023f919061208a565b6106b7565b005b610260600480360381019061025b9190611f9f565b6106d6565b60405161026d9190612009565b60405180910390f35b610290600480360381019061028b91906120da565b6106e7565b60405161029d9190612114565b60405180910390f35b6102c060048036038101906102bb91906120da565b6106fc565b6040516102cd9190612114565b60405180910390f35b6102de6107b2565b005b6102e86107c5565b6040516102f59190612114565b60405180910390f35b610318600480360381019061031391906120da565b6107cb565b005b61032261093e565b60405161032f9190612009565b60405180910390f35b610340610966565b60405161034d9190611f4c565b60405180910390f35b610370600480360381019061036b91906120da565b6109f6565b60405161037d9190611ec3565b60405180910390f35b6103a0600480360381019061039b9190612157565b610a48565b005b6103bc60048036038101906103b791906122c1565b610a83565b005b6103d860048036038101906103d39190611f9f565b610aa8565b6040516103e59190611f4c565b60405180910390f35b610408600480360381019061040391906123df565b610bb3565b005b610424600480360381019061041f9190612439565b610d0e565b6040516104319190611ec3565b60405180910390f35b610454600480360381019061044f91906120da565b610d9c565b005b5f634906490660e01b7bffffffffffffffffffffffffffffffffffffffffffffffffffffffff1916827bffffffffffffffffffffffffffffffffffffffffffffffffffffffff191614806104af57506104ae82610e20565b5b9050919050565b60605f80546104c4906124a4565b80601f01602080910402602001604051908101604052809291908181526020018280546104f0906124a4565b801561053b5780601f106105125761010080835404028352916020019161053b565b820191905f5260205f20905b81548152906001019060200180831161051e57829003601f168201915b5050505050905090565b5f61054f82610f01565b5061055982610f87565b9050919050565b6040517f08c379a00000000000000000000000000000000000000000000000000000000081526004016105929061251e565b60405180910390fd5b5f73ffffffffffffffffffffffffffffffffffffffff168273ffffffffffffffffffffffffffffffffffffffff160361060b575f6040517f64a0ae920000000000000000000000000000000000000000000000000000000081526004016106029190612009565b60405180910390fd5b5f61061e8383610619610fc0565b610fc7565b90508373ffffffffffffffffffffffffffffffffffffffff168173ffffffffffffffffffffffffffffffffffffffff1614610694578382826040517f64283d7b00000000000000000000000000000000000000000000000000000000815260040161068b9392919061253c565b60405180910390fd5b50505050565b6009602052805f5260405f205f915054906101000a900460ff1681565b6106d183838360405180602001604052805f815250610a83565b505050565b5f6106e082610f01565b9050919050565b600a602052805f5260405f205f915090505481565b5f5f73ffffffffffffffffffffffffffffffffffffffff168273ffffffffffffffffffffffffffffffffffffffff160361076d575f6040517f89c62b640000000000000000000000000000000000000000000000000000000081526004016107649190612009565b60405180910390fd5b60035f8373ffffffffffffffffffffffffffffffffffffffff1673ffffffffffffffffffffffffffffffffffffffff1681526020019081526020015f20549050919050565b6107ba61108d565b6107c35f611114565b565b60085481565b6107d361108d565b60095f8273ffffffffffffffffffffffffffffffffffffffff1673ffffffffffffffffffffffffffffffffffffffff1681526020019081526020015f205f9054906101000a900460ff1661085c576040517f08c379a0000000000000000000000000000000000000000000000000000000008152600401610853906125bb565b60405180910390fd5b5f600a5f8373ffffffffffffffffffffffffffffffffffffffff1673ffffffffffffffffffffffffffffffffffffffff1681526020019081526020015f205490506108a6816111d7565b5f60095f8473ffffffffffffffffffffffffffffffffffffffff1673ffffffffffffffffffffffffffffffffffffffff1681526020019081526020015f205f6101000a81548160ff021916908315150217905550600a5f8373ffffffffffffffffffffffffffffffffffffffff1673ffffffffffffffffffffffffffffffffffffffff1681526020019081526020015f205f90555050565b5f60075f9054906101000a900473ffffffffffffffffffffffffffffffffffffffff16905090565b606060018054610975906124a4565b80601f01602080910402602001604051908101604052809291908181526020018280546109a1906124a4565b80156109ec5780601f106109c3576101008083540402835291602001916109ec565b820191905f5260205f20905b8154815290600101906020018083116109cf57829003601f168201915b5050505050905090565b5f60095f8373ffffffffffffffffffffffffffffffffffffffff1673ffffffffffffffffffffffffffffffffffffffff1681526020019081526020015f205f9054906101000a900460ff169050919050565b6040517f08c379a0000000000000000000000000000000000000000000000000000000008152600401610a7a90612649565b60405180910390fd5b610a8e84848461059b565b610aa2610a99610fc0565b85858585611259565b50505050565b6060610ab382610f01565b505f60065f8481526020019081526020015f208054610ad1906124a4565b80601f0160208091040260200160405190810160405280929190818152602001828054610afd906124a4565b8015610b485780601f10610b1f57610100808354040283529160200191610b48565b820191905f5260205f20905b815481529060010190602001808311610b2b57829003601f168201915b505050505090505f610b58611405565b90505f815103610b6c578192505050610bae565b5f82511115610ba0578082604051602001610b889291906126a1565b60405160208183030381529060405292505050610bae565b610ba98461141b565b925050505b919050565b610bbb61108d565b60095f8373ffffffffffffffffffffffffffffffffffffffff1673ffffffffffffffffffffffffffffffffffffffff1681526020019081526020015f205f9054906101000a900460ff1615610c45576040517f08c379a0000000000000000000000000000000000000000000000000000000008152600401610c3c9061270e565b60405180910390fd5b5f60085f815480929190610c5890612759565b919050559050610c688382611481565b610c72818361149e565b600160095f8573ffffffffffffffffffffffffffffffffffffffff1673ffffffffffffffffffffffffffffffffffffffff1681526020019081526020015f205f6101000a81548160ff02191690831515021790555080600a5f8573ffffffffffffffffffffffffffffffffffffffff1673ffffffffffffffffffffffffffffffffffffffff1681526020019081526020015f2081905550505050565b5f60055f8473ffffffffffffffffffffffffffffffffffffffff1673ffffffffffffffffffffffffffffffffffffffff1681526020019081526020015f205f8373ffffffffffffffffffffffffffffffffffffffff1673ffffffffffffffffffffffffffffffffffffffff1681526020019081526020015f205f9054906101000a900460ff16905092915050565b610da461108d565b5f73ffffffffffffffffffffffffffffffffffffffff168173ffffffffffffffffffffffffffffffffffffffff1603610e14575f6040517f1e4fbdf7000000000000000000000000000000000000000000000000000000008152600401610e0b9190612009565b60405180910390fd5b610e1d81611114565b50565b5f7f80ac58cd000000000000000000000000000000000000000000000000000000007bffffffffffffffffffffffffffffffffffffffffffffffffffffffff1916827bffffffffffffffffffffffffffffffffffffffffffffffffffffffff19161480610eea57507f5b5e139f000000000000000000000000000000000000000000000000000000007bffffffffffffffffffffffffffffffffffffffffffffffffffffffff1916827bffffffffffffffffffffffffffffffffffffffffffffffffffffffff1916145b80610efa5750610ef9826114f8565b5b9050919050565b5f5f610f0c83611561565b90505f73ffffffffffffffffffffffffffffffffffffffff168173ffffffffffffffffffffffffffffffffffffffff1603610f7e57826040517f7e273289000000000000000000000000000000000000000000000000000000008152600401610f759190612114565b60405180910390fd5b80915050919050565b5f60045f8381526020019081526020015f205f9054906101000a900473ffffffffffffffffffffffffffffffffffffffff169050919050565b5f33905090565b5f5f610fd284611561565b90505f73ffffffffffffffffffffffffffffffffffffffff168173ffffffffffffffffffffffffffffffffffffffff16148061103957505f73ffffffffffffffffffffffffffffffffffffffff168573ffffffffffffffffffffffffffffffffffffffff16145b611078576040517f08c379a000000000000000000000000000000000000000000000000000000000815260040161106f90612810565b60405180910390fd5b61108385858561159a565b9150509392505050565b611095610fc0565b73ffffffffffffffffffffffffffffffffffffffff166110b361093e565b73ffffffffffffffffffffffffffffffffffffffff1614611112576110d6610fc0565b6040517f118cdaa70000000000000000000000000000000000000000000000000000000081526004016111099190612009565b60405180910390fd5b565b5f60075f9054906101000a900473ffffffffffffffffffffffffffffffffffffffff1690508160075f6101000a81548173ffffffffffffffffffffffffffffffffffffffff021916908373ffffffffffffffffffffffffffffffffffffffff1602179055508173ffffffffffffffffffffffffffffffffffffffff168173ffffffffffffffffffffffffffffffffffffffff167f8be0079c531659141344cd1fd0a4f28419497f9722a3daafe3b4186f6b6457e060405160405180910390a35050565b5f6111e35f835f610fc7565b90505f73ffffffffffffffffffffffffffffffffffffffff168173ffffffffffffffffffffffffffffffffffffffff160361125557816040517f7e27328900000000000000000000000000000000000000000000000000000000815260040161124c9190612114565b60405180910390fd5b5050565b5f8373ffffffffffffffffffffffffffffffffffffffff163b11156113fe578273ffffffffffffffffffffffffffffffffffffffff1663150b7a02868685856040518563ffffffff1660e01b81526004016112b79493929190612880565b6020604051808303815f875af19250505080156112f257506040513d601f19601f820116820180604052508101906112ef91906128de565b60015b611373573d805f8114611320576040519150601f19603f3d011682016040523d82523d5f602084013e611325565b606091505b505f81510361136b57836040517f64a0ae920000000000000000000000000000000000000000000000000000000081526004016113629190612009565b60405180910390fd5b805181602001fd5b63150b7a0260e01b7bffffffffffffffffffffffffffffffffffffffffffffffffffffffff1916817bffffffffffffffffffffffffffffffffffffffffffffffffffffffff1916146113fc57836040517f64a0ae920000000000000000000000000000000000000000000000000000000081526004016113f39190612009565b60405180910390fd5b505b5050505050565b606060405180602001604052805f815250905090565b606061142682610f01565b505f611430611405565b90505f81511161144e5760405180602001604052805f815250611479565b80611458846117a5565b6040516020016114699291906126a1565b6040516020818303038152906040525b915050919050565b61149a828260405180602001604052805f81525061186f565b5050565b8060065f8481526020019081526020015f2090816114bc9190612aa9565b507ff8e1a15aba9398e019f0b49df1a4fde98ee17ae345cb5f6b5e2c27f5033e8ce7826040516114ec9190612114565b60405180910390a15050565b5f7f01ffc9a7000000000000000000000000000000000000000000000000000000007bffffffffffffffffffffffffffffffffffffffffffffffffffffffff1916827bffffffffffffffffffffffffffffffffffffffffffffffffffffffff1916149050919050565b5f60025f8381526020019081526020015f205f9054906101000a900473ffffffffffffffffffffffffffffffffffffffff169050919050565b5f5f6115a584611561565b90505f73ffffffffffffffffffffffffffffffffffffffff168373ffffffffffffffffffffffffffffffffffffffff16146115e6576115e5818486611892565b5b5f73ffffffffffffffffffffffffffffffffffffffff168173ffffffffffffffffffffffffffffffffffffffff1614611671576116255f855f5f611955565b600160035f8373ffffffffffffffffffffffffffffffffffffffff1673ffffffffffffffffffffffffffffffffffffffff1681526020019081526020015f205f82825403925050819055505b5f73ffffffffffffffffffffffffffffffffffffffff168573ffffffffffffffffffffffffffffffffffffffff16146116f057600160035f8773ffffffffffffffffffffffffffffffffffffffff1673ffffffffffffffffffffffffffffffffffffffff1681526020019081526020015f205f82825401925050819055505b8460025f8681526020019081526020015f205f6101000a81548173ffffffffffffffffffffffffffffffffffffffff021916908373ffffffffffffffffffffffffffffffffffffffff160217905550838573ffffffffffffffffffffffffffffffffffffffff168273ffffffffffffffffffffffffffffffffffffffff167fddf252ad1be2c89b69c2b068fc378daa952ba7f163c4a11628f55a4df523b3ef60405160405180910390a4809150509392505050565b60605f60016117b384611b14565b0190505f8167ffffffffffffffff8111156117d1576117d061219d565b5b6040519080825280601f01601f1916602001820160405280156118035781602001600182028036833780820191505090505b5090505f82602001820190505b600115611864578080600190039150507f3031323334353637383961626364656600000000000000000000000000000000600a86061a8153600a858161185957611858612b78565b5b0494505f8503611810575b819350505050919050565b6118798383611c65565b61188d611884610fc0565b5f858585611259565b505050565b61189d838383611d58565b611950575f73ffffffffffffffffffffffffffffffffffffffff168373ffffffffffffffffffffffffffffffffffffffff160361191157806040517f7e2732890000000000000000000000000000000000000000000000000000000081526004016119089190612114565b60405180910390fd5b81816040517f177e802f000000000000000000000000000000000000000000000000000000008152600401611947929190612ba5565b60405180910390fd5b505050565b808061198d57505f73ffffffffffffffffffffffffffffffffffffffff168273ffffffffffffffffffffffffffffffffffffffff1614155b15611abf575f61199c84610f01565b90505f73ffffffffffffffffffffffffffffffffffffffff168373ffffffffffffffffffffffffffffffffffffffff1614158015611a0657508273ffffffffffffffffffffffffffffffffffffffff168173ffffffffffffffffffffffffffffffffffffffff1614155b8015611a195750611a178184610d0e565b155b15611a5b57826040517fa9fbf51f000000000000000000000000000000000000000000000000000000008152600401611a529190612009565b60405180910390fd5b8115611abd57838573ffffffffffffffffffffffffffffffffffffffff168273ffffffffffffffffffffffffffffffffffffffff167f8c5be1e5ebec7d5bd14f71427d1e84f3dd0314c0f7b2291e5b200ac8c7c3b92560405160405180910390a45b505b8360045f8581526020019081526020015f205f6101000a81548173ffffffffffffffffffffffffffffffffffffffff021916908373ffffffffffffffffffffffffffffffffffffffff16021790555050505050565b5f5f5f90507a184f03e93ff9f4daa797ed6e38ed64bf6a1f0100000000000000008310611b70577a184f03e93ff9f4daa797ed6e38ed64bf6a1f0100000000000000008381611b6657611b65612b78565b5b0492506040810190505b6d04ee2d6d415b85acef81000000008310611bad576d04ee2d6d415b85acef81000000008381611ba357611ba2612b78565b5b0492506020810190505b662386f26fc100008310611bdc57662386f26fc100008381611bd257611bd1612b78565b5b0492506010810190505b6305f5e1008310611c05576305f5e1008381611bfb57611bfa612b78565b5b0492506008810190505b6127108310611c2a576127108381611c2057611c1f612b78565b5b0492506004810190505b60648310611c4d5760648381611c4357611c42612b78565b5b0492506002810190505b600a8310611c5c576001810190505b80915050919050565b5f73ffffffffffffffffffffffffffffffffffffffff168273ffffffffffffffffffffffffffffffffffffffff1603611cd5575f6040517f64a0ae92000000000000000000000000000000000000000000000000000000008152600401611ccc9190612009565b60405180910390fd5b5f611ce183835f610fc7565b90505f73ffffffffffffffffffffffffffffffffffffffff168173ffffffffffffffffffffffffffffffffffffffff1614611d53575f6040517f73c6ac6e000000000000000000000000000000000000000000000000000000008152600401611d4a9190612009565b60405180910390fd5b505050565b5f5f73ffffffffffffffffffffffffffffffffffffffff168373ffffffffffffffffffffffffffffffffffffffff1614158015611e0f57508273ffffffffffffffffffffffffffffffffffffffff168473ffffffffffffffffffffffffffffffffffffffff161480611dd05750611dcf8484610d0e565b5b80611e0e57508273ffffffffffffffffffffffffffffffffffffffff16611df683610f87565b73ffffffffffffffffffffffffffffffffffffffff16145b5b90509392505050565b5f604051905090565b5f5ffd5b5f5ffd5b5f7fffffffff0000000000000000000000000000000000000000000000000000000082169050919050565b611e5d81611e29565b8114611e67575f5ffd5b50565b5f81359050611e7881611e54565b92915050565b5f60208284031215611e9357611e92611e21565b5b5f611ea084828501611e6a565b91505092915050565b5f8115159050919050565b611ebd81611ea9565b82525050565b5f602082019050611ed65f830184611eb4565b92915050565b5f81519050919050565b5f82825260208201905092915050565b8281835e5f83830152505050565b5f601f19601f8301169050919050565b5f611f1e82611edc565b611f288185611ee6565b9350611f38818560208601611ef6565b611f4181611f04565b840191505092915050565b5f6020820190508181035f830152611f648184611f14565b905092915050565b5f819050919050565b611f7e81611f6c565b8114611f88575f5ffd5b50565b5f81359050611f9981611f75565b92915050565b5f60208284031215611fb457611fb3611e21565b5b5f611fc184828501611f8b565b91505092915050565b5f73ffffffffffffffffffffffffffffffffffffffff82169050919050565b5f611ff382611fca565b9050919050565b61200381611fe9565b82525050565b5f60208201905061201c5f830184611ffa565b92915050565b61202b81611fe9565b8114612035575f5ffd5b50565b5f8135905061204681612022565b92915050565b5f5f6040838503121561206257612061611e21565b5b5f61206f85828601612038565b925050602061208085828601611f8b565b9150509250929050565b5f5f5f606084860312156120a1576120a0611e21565b5b5f6120ae86828701612038565b93505060206120bf86828701612038565b92505060406120d086828701611f8b565b9150509250925092565b5f602082840312156120ef576120ee611e21565b5b5f6120fc84828501612038565b91505092915050565b61210e81611f6c565b82525050565b5f6020820190506121275f830184612105565b92915050565b61213681611ea9565b8114612140575f5ffd5b50565b5f813590506121518161212d565b92915050565b5f5f6040838503121561216d5761216c611e21565b5b5f61217a85828601612038565b925050602061218b85828601612143565b9150509250929050565b5f5ffd5b5f5ffd5b7f4e487b71000000000000000000000000000000000000000000000000000000005f52604160045260245ffd5b6121d382611f04565b810181811067ffffffffffffffff821117156121f2576121f161219d565b5b80604052505050565b5f612204611e18565b905061221082826121ca565b919050565b5f67ffffffffffffffff82111561222f5761222e61219d565b5b61223882611f04565b9050602081019050919050565b828183375f83830152505050565b5f61226561226084612215565b6121fb565b90508281526020810184848401111561228157612280612199565b5b61228c848285612245565b509392505050565b5f82601f8301126122a8576122a7612195565b5b81356122b8848260208601612253565b91505092915050565b5f5f5f5f608085870312156122d9576122d8611e21565b5b5f6122e687828801612038565b94505060206122f787828801612038565b935050604061230887828801611f8b565b925050606085013567ffffffffffffffff81111561232957612328611e25565b5b61233587828801612294565b91505092959194509250565b5f67ffffffffffffffff82111561235b5761235a61219d565b5b61236482611f04565b9050602081019050919050565b5f61238361237e84612341565b6121fb565b90508281526020810184848401111561239f5761239e612199565b5b6123aa848285612245565b509392505050565b5f82601f8301126123c6576123c5612195565b5b81356123d6848260208601612371565b91505092915050565b5f5f604083850312156123f5576123f4611e21565b5b5f61240285828601612038565b925050602083013567ffffffffffffffff81111561242357612422611e25565b5b61242f858286016123b2565b9150509250929050565b5f5f6040838503121561244f5761244e611e21565b5b5f61245c85828601612038565b925050602061246d85828601612038565b9150509250929050565b7f4e487b71000000000000000000000000000000000000000000000000000000005f52602260045260245ffd5b5f60028204905060018216806124bb57607f821691505b6020821081036124ce576124cd612477565b5b50919050565b7f4964656e746974795342543a20617070726f7665206e6f7420616c6c6f7765645f82015250565b5f612508602083611ee6565b9150612513826124d4565b602082019050919050565b5f6020820190508181035f830152612535816124fc565b9050919050565b5f60608201905061254f5f830186611ffa565b61255c6020830185612105565b6125696040830184611ffa565b949350505050565b7f4964656e746974795342543a206e6f20746f6b656e20746f206275726e0000005f82015250565b5f6125a5601d83611ee6565b91506125b082612571565b602082019050919050565b5f6020820190508181035f8301526125d281612599565b9050919050565b7f4964656e746974795342543a20617070726f76616c206e6f7420616c6c6f77655f8201527f6400000000000000000000000000000000000000000000000000000000000000602082015250565b5f612633602183611ee6565b915061263e826125d9565b604082019050919050565b5f6020820190508181035f83015261266081612627565b9050919050565b5f81905092915050565b5f61267b82611edc565b6126858185612667565b9350612695818560208601611ef6565b80840191505092915050565b5f6126ac8285612671565b91506126b88284612671565b91508190509392505050565b7f4964656e746974795342543a20616c7265616479206d696e74656400000000005f82015250565b5f6126f8601b83611ee6565b9150612703826126c4565b602082019050919050565b5f6020820190508181035f830152612725816126ec565b9050919050565b7f4e487b71000000000000000000000000000000000000000000000000000000005f52601160045260245ffd5b5f61276382611f6c565b91507fffffffffffffffffffffffffffffffffffffffffffffffffffffffffffffffff82036127955761279461272c565b5b600182019050919050565b7f4964656e746974795342543a207472616e73666572206e6f7420616c6c6f77655f8201527f6400000000000000000000000000000000000000000000000000000000000000602082015250565b5f6127fa602183611ee6565b9150612805826127a0565b604082019050919050565b5f6020820190508181035f830152612827816127ee565b9050919050565b5f81519050919050565b5f82825260208201905092915050565b5f6128528261282e565b61285c8185612838565b935061286c818560208601611ef6565b61287581611f04565b840191505092915050565b5f6080820190506128935f830187611ffa565b6128a06020830186611ffa565b6128ad6040830185612105565b81810360608301526128bf8184612848565b905095945050505050565b5f815190506128d881611e54565b92915050565b5f602082840312156128f3576128f2611e21565b5b5f612900848285016128ca565b91505092915050565b5f819050815f5260205f209050919050565b5f6020601f8301049050919050565b5f82821b905092915050565b5f600883026129657fffffffffffffffffffffffffffffffffffffffffffffffffffffffffffffffff8261292a565b61296f868361292a565b95508019841693508086168417925050509392505050565b5f819050919050565b5f6129aa6129a56129a084611f6c565b612987565b611f6c565b9050919050565b5f819050919050565b6129c383612990565b6129d76129cf826129b1565b848454612936565b825550505050565b5f5f905090565b6129ee6129df565b6129f98184846129ba565b505050565b5b81811015612a1c57612a115f826129e6565b6001810190506129ff565b5050565b601f821115612a6157612a3281612909565b612a3b8461291b565b81016020851015612a4a578190505b612a5e612a568561291b565b8301826129fe565b50505b505050565b5f82821c905092915050565b5f612a815f1984600802612a66565b1980831691505092915050565b5f612a998383612a72565b9150826002028217905092915050565b612ab282611edc565b67ffffffffffffffff811115612acb57612aca61219d565b5b612ad582546124a4565b612ae0828285612a20565b5f60209050601f831160018114612b11575f8415612aff578287015190505b612b098582612a8e565b865550612b70565b601f198416612b1f86612909565b5f5b82811015612b4657848901518255600182019150602085019450602081019050612b21565b86831015612b635784890151612b5f601f891682612a72565b8355505b6001600288020188555050505b505050505050565b7f4e487b71000000000000000000000000000000000000000000000000000000005f52601260045260245ffd5b5f604082019050612bb85f830185611ffa565b612bc56020830184612105565b939250505056fea26469706673582212206a2f52e20adc1faa7911bb04b536d30610fe149ae77719d8a3fd54fd5c26711764736f6c634300081c0033",
    "linkReferences": {}
  },
  "methodIdentifiers": {
    "addressToTokenId(address)": "6511bf2e",
    "approve(address,uint256)": "095ea7b3",
    "balanceOf(address)": "70a08231",
    "burn(address)": "89afcb44",
    "getApproved(uint256)": "081812fc",
    "hasMinted(address)": "38e21cce",
    "hasToken(address)": "9bb0f599",
    "isApprovedForAll(address,address)": "e985e9c5",
    "mint(address,string)": "d0def521",
    "name()": "06fdde03",
    "nextTokenId()": "75794a3c",
    "owner()": "8da5cb5b",
    "ownerOf(uint256)": "6352211e",
    "renounceOwnership()": "715018a6",
    "safeTransferFrom(address,address,uint256)": "42842e0e",
    "safeTransferFrom(address,address,uint256,bytes)": "b88d4fde",
    "setApprovalForAll(address,bool)": "a22cb465",
    "supportsInterface(bytes4)": "01ffc9a7",
    "symbol()": "95d89b41",
    "tokenURI(uint256)": "c87b56dd",
    "transferFrom(address,address,uint256)": "23b872dd",
    "transferOwnership(address)": "f2fde38b"
  },
  "id": 35
}